:060000000C947E000C943C
:10000600AB000C94B2000C9400000C9400000C940D
:1000160000000C9400000C9400000C94ED000C946D
:1000260000000C9400000C9400000C9400000C944A
:1000360000000C9400000C9400000C9400000C943A
:1000460000000C94B7000C9400000C940000000013
:100056000000600104006501660131323334004559
:100066006E7465722050617373776F72643A0043E1
:100076006F72726563742050617373776F72640078
:1000860057726F6E672050617373776F7264004E9C
:1000960065772050617373776F72643A000080C091
:1000A6000A000400540005006001600001006501BB
:1000B60064000100660164000200C7015E000100E1
:1000C6006701640010006801650010007801650092
:1000D6001100880175000F00990186000100A80132
:1000E60064001000A90165000E00B9019500020028
:1000F600CC01A4000000F894EE27ECBBF1E0FBBFB6
:10010600EBBFE5BF8DE0A2E0BB27ED938A95E9F74B
:1001160080E094E0A0E6ED930197E9F7E6EAF0E0E7
:1001260085919591009761F0A591B59105901590EF
:10013600BF01F00105900D920197E1F7FB01F0CFA9
:10014600EFE5EDBFE4E0EEBFC0E6D1E00C941401AC
:100156000E94C402E1E0F0E02F01AAEF51C0EA9349
:10016600EDE0EEBDE99118950E94C402A8ECB0E05E
:100176000E942D030E94D2020E94E3020E94A30263
:100186000E943703A8F49A928A920E94E3020E9480
:1001960096020E94E3020E94A3025F010E94E80207
:1001A600A7E6B1E00E949602E093C701F093C8016A
:1001B6000E94EF02A8E6B1E00E944202AAEFB0E078
:1001C6000E942D03E0E0E093CA01E093CB01662490
:1001D600772419C00E94C402E8E0EEBDE1E0F0E039
:1001E600E093CA01F093CB011CD10E94FA02662467
:1001F6007724E0E0EA93A1E003D1D40140D1AAE05C
:10020600B0E00E942D03E991EFBFF991E991B99110
:10021600A9919991899179916991F990199009908B
:100226001895E0E0EABBEBBBE7BBE8BBE4BBE5BB8C
:10023600E1BBE2BBA0E134D1EBB7E06EEBBFEFE090
:10024600E5BFE0E0E4BFE0EEEABFE0E0EFBD0E941C
:10025600D202E4E0E9BF78940E94FE02A8E7B1E08A
:100266000E940403E091CA01F091CB01309709F096
:1002760042C0EFE0F0E0E615F7051CF4D2D06624A4
:100286007724042C052881F00E9407030E94FA02B5
:100296000E940E030E941303F30131963F01DA9286
:1002A600CA920E9418036F01D6010E94A302AE16DD
:1002B600BF0601F577D0309729F00E94EF02A8E833
:1002C600B1E004C00E94EF02A9E9B1E0D8D0A0EDE8
:1002D600B7E00E942D03A5D066247724DA92CA924D
:1002E600A8EAB1E00E9496020E94FE02A9EAB1E0E5
:1002F6000E94040322C00E94FE02A9EBB1E00E9404
:100306000403EFE0F0E0E615F7051CF48AD0662456
:100316007724042C052889F00E9407030E940E0307
:100326000E941303F30131963F010E94E8020E94E6
:100336001803E093C701F093C80194CFFFCFE3B34E
:10034600EF70E13011F4E1E30895E23011F4E2E3F5
:100356000895E33011F4E3E30895E43011F4E4E39F
:100366000895E53011F4E5E30895E63011F4E6E387
:100376000895E73011F4E7E30895E83011F4E8E36F
:100386000895E93011F4E9E30895EA3011F4E0E361
:100396000895EB3011F4EAE20895EC3011F4E3E24B
:1003A60008950895DA92CA92D4010E948202E0303A
:1003B60019F4E1E0F0E00895E0E0F0E00895089532
:1003C600AA93EBB3EF70AE2FE881E07FEA2BEBBB8D
:1003D60082E18A95F1F7D99A82E18A95F1F7D9985F
:1003E60082E18A95F1F789C0AA93A881E9DFE881BD
:1003F600E295E883A881E4DF88EB8A95F1F77DC072
:10040600AA93E881F0E0E453FE4FE081A981AE0FA4
:10041600EBDFE981E093D001E881E093D1012296F8
:100426000895A2E00E941F03ACE0DEDFA1E00E9477
:100436001F03E0E0E093D101E093D0010895AA9371
:10044600A881AA3031F0E091D201A091D001AE1777
:1004560060F0E0E0EA93A091D101AF5FA093D101F3
:10046600CFDFA881AA3009F448C0E091D001EF5F40
:10047600E093D001D89AA881B7DFD8983EC0BA9346
:10048600AA931A93A981BA81ED91A983BA831E2FE3
:10049600E03019F0A12FD3DFF5CF18812396089508
:1004A600AA93EAB3E06FEABBD19AD09AD29AD998C6
:1004B600D898DA98E881E093D201E058E093CE012B
:1004C600E881E054E093CF01A4E1B0E00E942D035F
:1004D6000E9425030E9425030E942503A0E270DFE7
:1004E60084E191E00197F1F7A8E27EDFA4E07CDFEA
:1004F600A5E87ADFA6E078DF94DF21960895BA931F
:10050600AA93E991F991A991B9916D9171916717A2
:1005160021F46623D1F7EE270895671BE1F3E1E0A6
:1005260008F4E2500895BA93AA93E991F991A99132
:10053600B991CD0161916D936623E1F7FC010895B0
:10054600BA93AA93A991B991EE27FF276D916623D5
:1005560011F03196FBCF0895AA937991E991F9911B
:10056600A991B991CD016D916623E9F711977C9315
:10057600772329F07A9561916D936623C1F7FC0183
:1005860008950A921A92FA926A937A938A939A93A0
:10059600AA93BA93EA93FA93EFB7EA930895E8E039
:1005A600EEBDEBEAEDBDE0EAECBDE0E0E7BDE6BDA1
:1005B600E4E5EBBDEFE5EABDE0E0E9BDE8BD0895A1
:1005C600A091C701B091C8010895E091C701F091CB
:1005D600C801FA93EA9308950E941402E0E0EA93B0
:1005E600A0E00E940302AAE0B0E00C942D03AAE06A
:1005F600B0E00C942D03E0E0EA93A0E00E94030231
:10060600F6CF0E944202F3CF442455240E94A20151
:10061600E093C90108956A92A1E00E940302E7CF20
:10062600A091C9010E942202E2CFE9ECF1E0FA931F
:10063600EA93A1E00C94AF020E94F701A3E0B0E0B8
:100646000C942D03A0E30E94E30184E191E001975D
:10065600F1F70895109639F0A8958DEC9AE0019778
:10066600F1F71197C9F7089500240E160F0608959D
:00000001FF
